{
  "address": "0xbe5Cb4b75ff34f5E506D4e73E016660629e88BAF",
  "abi": [
    {
      "inputs": [
        {
          "internalType": "string",
          "name": "account",
          "type": "string"
        },
        {
          "internalType": "string",
          "name": "name",
          "type": "string"
        },
        {
          "internalType": "string",
          "name": "role",
          "type": "string"
        }
      ],
      "name": "addUser",
      "outputs": [
        {
          "internalType": "bool",
          "name": "",
          "type": "bool"
        }
      ],
      "stateMutability": "nonpayable",
      "type": "function"
    },
    {
      "inputs": [
        {
          "internalType": "string",
          "name": "",
          "type": "string"
        },
        {
          "internalType": "uint256",
          "name": "",
          "type": "uint256"
        }
      ],
      "name": "cert_ins",
      "outputs": [
        {
          "internalType": "string",
          "name": "cert_name",
          "type": "string"
        },
        {
          "internalType": "string",
          "name": "cert_type",
          "type": "string"
        },
        {
          "internalType": "string",
          "name": "stu_address",
          "type": "string"
        }
      ],
      "stateMutability": "view",
      "type": "function"
    },
    {
      "inputs": [
        {
          "internalType": "string",
          "name": "",
          "type": "string"
        },
        {
          "internalType": "uint256",
          "name": "",
          "type": "uint256"
        }
      ],
      "name": "certs",
      "outputs": [
        {
          "internalType": "string",
          "name": "cert_name",
          "type": "string"
        },
        {
          "internalType": "string",
          "name": "cert_type",
          "type": "string"
        },
        {
          "internalType": "string",
          "name": "org_address",
          "type": "string"
        }
      ],
      "stateMutability": "view",
      "type": "function"
    },
    {
      "inputs": [
        {
          "internalType": "string",
          "name": "account",
          "type": "string"
        }
      ],
      "name": "doesUserExists",
      "outputs": [
        {
          "internalType": "bool",
          "name": "",
          "type": "bool"
        }
      ],
      "stateMutability": "view",
      "type": "function"
    },
    {
      "inputs": [
        {
          "internalType": "string",
          "name": "org_account",
          "type": "string"
        },
        {
          "internalType": "string",
          "name": "stu_account",
          "type": "string"
        },
        {
          "internalType": "string",
          "name": "cert_name",
          "type": "string"
        },
        {
          "internalType": "string",
          "name": "cert_type",
          "type": "string"
        }
      ],
      "name": "generateCertificate",
      "outputs": [
        {
          "internalType": "bool",
          "name": "",
          "type": "bool"
        }
      ],
      "stateMutability": "nonpayable",
      "type": "function"
    },
    {
      "inputs": [
        {
          "internalType": "string",
          "name": "org_account",
          "type": "string"
        },
        {
          "internalType": "string",
          "name": "stu_account",
          "type": "string"
        }
      ],
      "name": "getCertificates",
      "outputs": [
        {
          "internalType": "bool",
          "name": "",
          "type": "bool"
        },
        {
          "internalType": "string",
          "name": "",
          "type": "string"
        },
        {
          "internalType": "string",
          "name": "",
          "type": "string"
        },
        {
          "internalType": "string",
          "name": "",
          "type": "string"
        },
        {
          "internalType": "string",
          "name": "",
          "type": "string"
        }
      ],
      "stateMutability": "view",
      "type": "function"
    },
    {
      "inputs": [
        {
          "internalType": "string",
          "name": "org_account",
          "type": "string"
        }
      ],
      "name": "getCertificates_Organisation",
      "outputs": [
        {
          "components": [
            {
              "internalType": "string",
              "name": "cert_name",
              "type": "string"
            },
            {
              "internalType": "string",
              "name": "cert_type",
              "type": "string"
            },
            {
              "internalType": "string",
              "name": "stu_address",
              "type": "string"
            }
          ],
          "internalType": "struct Certificate.Cert_Ins[]",
          "name": "",
          "type": "tuple[]"
        }
      ],
      "stateMutability": "view",
      "type": "function"
    },
    {
      "inputs": [
        {
          "internalType": "string",
          "name": "stu_account",
          "type": "string"
        }
      ],
      "name": "getCertificates_Student",
      "outputs": [
        {
          "components": [
            {
              "internalType": "string",
              "name": "cert_name",
              "type": "string"
            },
            {
              "internalType": "string",
              "name": "cert_type",
              "type": "string"
            },
            {
              "internalType": "string",
              "name": "org_address",
              "type": "string"
            }
          ],
          "internalType": "struct Certificate.Cert[]",
          "name": "",
          "type": "tuple[]"
        }
      ],
      "stateMutability": "view",
      "type": "function"
    },
    {
      "inputs": [
        {
          "internalType": "string",
          "name": "account",
          "type": "string"
        }
      ],
      "name": "getUser",
      "outputs": [
        {
          "internalType": "string",
          "name": "",
          "type": "string"
        },
        {
          "internalType": "string",
          "name": "",
          "type": "string"
        }
      ],
      "stateMutability": "view",
      "type": "function"
    },
    {
      "inputs": [
        {
          "internalType": "string",
          "name": "",
          "type": "string"
        }
      ],
      "name": "users",
      "outputs": [
        {
          "internalType": "string",
          "name": "name",
          "type": "string"
        },
        {
          "internalType": "string",
          "name": "role",
          "type": "string"
        }
      ],
      "stateMutability": "view",
      "type": "function"
    }
  ],
  "transactionHash": "0x33d419b0323fae1e37a03d73c0ae69bea805603a25ef879e00f00524a984ab53",
  "args": [],
  "numDeployments": 4,
  "solcInputHash": "6a45a046f87ff6f6d6a1577076b4b18b",
  "bytecode": "0x608060405234801561001057600080fd5b506120ca806100206000396000f3fe608060405234801561001057600080fd5b506004361061009e5760003560e01c8063689e1c0311610066578063689e1c031461019c578063766e072c146101cd57806394567feb146101fd57806395c5fed41461022d578063a95ef4f01461025d5761009e565b8063056f8948146100a357806312877d78146100d557806312bed7d1146101095780631bb514541461013957806331feb6711461016b575b600080fd5b6100bd60048036038101906100b891906114d8565b61028d565b6040516100cc939291906115b3565b60405180910390f35b6100ef60048036038101906100ea91906115ff565b610482565b604051610100959493929190611692565b60405180910390f35b610123600480360381019061011e9190611701565b6107d6565b604051610130919061174a565b60405180910390f35b610153600480360381019061014e91906114d8565b61085c565b604051610162939291906115b3565b60405180910390f35b61018560048036038101906101809190611701565b610a51565b604051610193929190611765565b60405180910390f35b6101b660048036038101906101b19190611701565b610bb8565b6040516101c4929190611765565b60405180910390f35b6101e760048036038101906101e29190611701565b610d02565b6040516101f49190611906565b60405180910390f35b61021760048036038101906102129190611701565b610f35565b6040516102249190611a48565b60405180910390f35b61024760048036038101906102429190611a6a565b611168565b604051610254919061174a565b60405180910390f35b61027760048036038101906102729190611b11565b6111ee565b604051610284919061174a565b60405180910390f35b60028280516020810182018051848252602083016020850120818352809550505050505081815481106102bf57600080fd5b9060005260206000209060030201600091509150508060000180546102e390611c17565b80601f016020809104026020016040519081016040528092919081815260200182805461030f90611c17565b801561035c5780601f106103315761010080835404028352916020019161035c565b820191906000526020600020905b81548152906001019060200180831161033f57829003601f168201915b50505050509080600101805461037190611c17565b80601f016020809104026020016040519081016040528092919081815260200182805461039d90611c17565b80156103ea5780601f106103bf576101008083540402835291602001916103ea565b820191906000526020600020905b8154815290600101906020018083116103cd57829003601f168201915b5050505050908060020180546103ff90611c17565b80601f016020809104026020016040519081016040528092919081815260200182805461042b90611c17565b80156104785780601f1061044d57610100808354040283529160200191610478565b820191906000526020600020905b81548152906001019060200180831161045b57829003601f168201915b5050505050905083565b6000606080606080606060018760405161049c9190611c84565b9081526020016040518091039020805480602002602001604051908101604052809291908181526020016000905b828210156106b257838290600052602060002090600302016040518060600160405290816000820180546104fd90611c17565b80601f016020809104026020016040519081016040528092919081815260200182805461052990611c17565b80156105765780601f1061054b57610100808354040283529160200191610576565b820191906000526020600020905b81548152906001019060200180831161055957829003601f168201915b5050505050815260200160018201805461058f90611c17565b80601f01602080910402602001604051908101604052809291908181526020018280546105bb90611c17565b80156106085780601f106105dd57610100808354040283529160200191610608565b820191906000526020600020905b8154815290600101906020018083116105eb57829003601f168201915b5050505050815260200160028201805461062190611c17565b80601f016020809104026020016040519081016040528092919081815260200182805461064d90611c17565b801561069a5780601f1061066f5761010080835404028352916020019161069a565b820191906000526020600020905b81548152906001019060200180831161067d57829003601f168201915b505050505081525050815260200190600101906104ca565b50505050905060005b815181101561079b57886040516020016106d59190611c84565b604051602081830303815290604052805190602001208282815181106106fe576106fd611c9b565b5b60200260200101516040015160405160200161071a9190611c84565b6040516020818303038152906040528051906020012003610788576001898984848151811061074c5761074b611c9b565b5b60200260200101516000015185858151811061076b5761076a611c9b565b5b6020026020010151602001519650965096509650965050506107cc565b808061079390611cf9565b9150506106bb565b5060018888604051806020016040528060008152506040518060200160405280600081525095509550955095509550505b9295509295909350565b60006040516020016107e790611d67565b6040516020818303038152906040528051906020012060008360405161080d9190611c84565b908152602001604051809103902060000160405160200161082e9190611e14565b60405160208183030381529060405280519060200120036108525760009050610857565b600190505b919050565b600182805160208101820180518482526020830160208501208183528095505050505050818154811061088e57600080fd5b9060005260206000209060030201600091509150508060000180546108b290611c17565b80601f01602080910402602001604051908101604052809291908181526020018280546108de90611c17565b801561092b5780601f106109005761010080835404028352916020019161092b565b820191906000526020600020905b81548152906001019060200180831161090e57829003601f168201915b50505050509080600101805461094090611c17565b80601f016020809104026020016040519081016040528092919081815260200182805461096c90611c17565b80156109b95780601f1061098e576101008083540402835291602001916109b9565b820191906000526020600020905b81548152906001019060200180831161099c57829003601f168201915b5050505050908060020180546109ce90611c17565b80601f01602080910402602001604051908101604052809291908181526020018280546109fa90611c17565b8015610a475780601f10610a1c57610100808354040283529160200191610a47565b820191906000526020600020905b815481529060010190602001808311610a2a57829003601f168201915b5050505050905083565b60608060008084604051610a659190611c84565b9081526020016040518091039020604051806040016040529081600082018054610a8e90611c17565b80601f0160208091040260200160405190810160405280929190818152602001828054610aba90611c17565b8015610b075780601f10610adc57610100808354040283529160200191610b07565b820191906000526020600020905b815481529060010190602001808311610aea57829003601f168201915b50505050508152602001600182018054610b2090611c17565b80601f0160208091040260200160405190810160405280929190818152602001828054610b4c90611c17565b8015610b995780601f10610b6e57610100808354040283529160200191610b99565b820191906000526020600020905b815481529060010190602001808311610b7c57829003601f168201915b5050505050815250509050806000015181602001519250925050915091565b600081805160208101820180518482526020830160208501208183528095505050505050600091509050806000018054610bf190611c17565b80601f0160208091040260200160405190810160405280929190818152602001828054610c1d90611c17565b8015610c6a5780601f10610c3f57610100808354040283529160200191610c6a565b820191906000526020600020905b815481529060010190602001808311610c4d57829003601f168201915b505050505090806001018054610c7f90611c17565b80601f0160208091040260200160405190810160405280929190818152602001828054610cab90611c17565b8015610cf85780601f10610ccd57610100808354040283529160200191610cf8565b820191906000526020600020905b815481529060010190602001808311610cdb57829003601f168201915b5050505050905082565b6060600182604051610d149190611c84565b9081526020016040518091039020805480602002602001604051908101604052809291908181526020016000905b82821015610f2a5783829060005260206000209060030201604051806060016040529081600082018054610d7590611c17565b80601f0160208091040260200160405190810160405280929190818152602001828054610da190611c17565b8015610dee5780601f10610dc357610100808354040283529160200191610dee565b820191906000526020600020905b815481529060010190602001808311610dd157829003601f168201915b50505050508152602001600182018054610e0790611c17565b80601f0160208091040260200160405190810160405280929190818152602001828054610e3390611c17565b8015610e805780601f10610e5557610100808354040283529160200191610e80565b820191906000526020600020905b815481529060010190602001808311610e6357829003601f168201915b50505050508152602001600282018054610e9990611c17565b80601f0160208091040260200160405190810160405280929190818152602001828054610ec590611c17565b8015610f125780601f10610ee757610100808354040283529160200191610f12565b820191906000526020600020905b815481529060010190602001808311610ef557829003601f168201915b50505050508152505081526020019060010190610d42565b505050509050919050565b6060600282604051610f479190611c84565b9081526020016040518091039020805480602002602001604051908101604052809291908181526020016000905b8282101561115d5783829060005260206000209060030201604051806060016040529081600082018054610fa890611c17565b80601f0160208091040260200160405190810160405280929190818152602001828054610fd490611c17565b80156110215780601f10610ff657610100808354040283529160200191611021565b820191906000526020600020905b81548152906001019060200180831161100457829003601f168201915b5050505050815260200160018201805461103a90611c17565b80601f016020809104026020016040519081016040528092919081815260200182805461106690611c17565b80156110b35780601f10611088576101008083540402835291602001916110b3565b820191906000526020600020905b81548152906001019060200180831161109657829003601f168201915b505050505081526020016002820180546110cc90611c17565b80601f01602080910402602001604051908101604052809291908181526020018280546110f890611c17565b80156111455780601f1061111a57610100808354040283529160200191611145565b820191906000526020600020905b81548152906001019060200180831161112857829003601f168201915b50505050508152505081526020019060010190610f75565b505050509050919050565b6000611173846107d6565b6111e25760405180604001604052808481526020018381525060008560405161119c9190611c84565b908152602001604051809103902060008201518160000190816111bf9190611fc2565b5060208201518160010190816111d59190611fc2565b50905050600190506111e7565b600090505b9392505050565b60006001846040516112009190611c84565b9081526020016040518091039020604051806060016040528085815260200184815260200187815250908060018154018082558091505060019003906000526020600020906003020160009091909190915060008201518160000190816112679190611fc2565b50602082015181600101908161127d9190611fc2565b5060408201518160020190816112939190611fc2565b5050506002856040516112a69190611c84565b90815260200160405180910390206040518060600160405280858152602001848152602001868152509080600181540180825580915050600190039060005260206000209060030201600090919091909150600082015181600001908161130d9190611fc2565b5060208201518160010190816113239190611fc2565b5060408201518160020190816113399190611fc2565b50505060019050949350505050565b6000604051905090565b600080fd5b600080fd5b600080fd5b600080fd5b6000601f19601f8301169050919050565b7f4e487b7100000000000000000000000000000000000000000000000000000000600052604160045260246000fd5b6113af82611366565b810181811067ffffffffffffffff821117156113ce576113cd611377565b5b80604052505050565b60006113e1611348565b90506113ed82826113a6565b919050565b600067ffffffffffffffff82111561140d5761140c611377565b5b61141682611366565b9050602081019050919050565b82818337600083830152505050565b6000611445611440846113f2565b6113d7565b90508281526020810184848401111561146157611460611361565b5b61146c848285611423565b509392505050565b600082601f8301126114895761148861135c565b5b8135611499848260208601611432565b91505092915050565b6000819050919050565b6114b5816114a2565b81146114c057600080fd5b50565b6000813590506114d2816114ac565b92915050565b600080604083850312156114ef576114ee611352565b5b600083013567ffffffffffffffff81111561150d5761150c611357565b5b61151985828601611474565b925050602061152a858286016114c3565b9150509250929050565b600081519050919050565b600082825260208201905092915050565b60005b8381101561156e578082015181840152602081019050611553565b60008484015250505050565b600061158582611534565b61158f818561153f565b935061159f818560208601611550565b6115a881611366565b840191505092915050565b600060608201905081810360008301526115cd818661157a565b905081810360208301526115e1818561157a565b905081810360408301526115f5818461157a565b9050949350505050565b6000806040838503121561161657611615611352565b5b600083013567ffffffffffffffff81111561163457611633611357565b5b61164085828601611474565b925050602083013567ffffffffffffffff81111561166157611660611357565b5b61166d85828601611474565b9150509250929050565b60008115159050919050565b61168c81611677565b82525050565b600060a0820190506116a76000830188611683565b81810360208301526116b9818761157a565b905081810360408301526116cd818661157a565b905081810360608301526116e1818561157a565b905081810360808301526116f5818461157a565b90509695505050505050565b60006020828403121561171757611716611352565b5b600082013567ffffffffffffffff81111561173557611734611357565b5b61174184828501611474565b91505092915050565b600060208201905061175f6000830184611683565b92915050565b6000604082019050818103600083015261177f818561157a565b90508181036020830152611793818461157a565b90509392505050565b600081519050919050565b600082825260208201905092915050565b6000819050602082019050919050565b600082825260208201905092915050565b60006117e482611534565b6117ee81856117c8565b93506117fe818560208601611550565b61180781611366565b840191505092915050565b6000606083016000830151848203600086015261182f82826117d9565b9150506020830151848203602086015261184982826117d9565b9150506040830151848203604086015261186382826117d9565b9150508091505092915050565b600061187c8383611812565b905092915050565b6000602082019050919050565b600061189c8261179c565b6118a681856117a7565b9350836020820285016118b8856117b8565b8060005b858110156118f457848403895281516118d58582611870565b94506118e083611884565b925060208a019950506001810190506118bc565b50829750879550505050505092915050565b600060208201905081810360008301526119208184611891565b905092915050565b600081519050919050565b600082825260208201905092915050565b6000819050602082019050919050565b6000606083016000830151848203600086015261197182826117d9565b9150506020830151848203602086015261198b82826117d9565b915050604083015184820360408601526119a582826117d9565b9150508091505092915050565b60006119be8383611954565b905092915050565b6000602082019050919050565b60006119de82611928565b6119e88185611933565b9350836020820285016119fa85611944565b8060005b85811015611a365784840389528151611a1785826119b2565b9450611a22836119c6565b925060208a019950506001810190506119fe565b50829750879550505050505092915050565b60006020820190508181036000830152611a6281846119d3565b905092915050565b600080600060608486031215611a8357611a82611352565b5b600084013567ffffffffffffffff811115611aa157611aa0611357565b5b611aad86828701611474565b935050602084013567ffffffffffffffff811115611ace57611acd611357565b5b611ada86828701611474565b925050604084013567ffffffffffffffff811115611afb57611afa611357565b5b611b0786828701611474565b9150509250925092565b60008060008060808587031215611b2b57611b2a611352565b5b600085013567ffffffffffffffff811115611b4957611b48611357565b5b611b5587828801611474565b945050602085013567ffffffffffffffff811115611b7657611b75611357565b5b611b8287828801611474565b935050604085013567ffffffffffffffff811115611ba357611ba2611357565b5b611baf87828801611474565b925050606085013567ffffffffffffffff811115611bd057611bcf611357565b5b611bdc87828801611474565b91505092959194509250565b7f4e487b7100000000000000000000000000000000000000000000000000000000600052602260045260246000fd5b60006002820490506001821680611c2f57607f821691505b602082108103611c4257611c41611be8565b5b50919050565b600081905092915050565b6000611c5e82611534565b611c688185611c48565b9350611c78818560208601611550565b80840191505092915050565b6000611c908284611c53565b915081905092915050565b7f4e487b7100000000000000000000000000000000000000000000000000000000600052603260045260246000fd5b7f4e487b7100000000000000000000000000000000000000000000000000000000600052601160045260246000fd5b6000611d04826114a2565b91507fffffffffffffffffffffffffffffffffffffffffffffffffffffffffffffffff8203611d3657611d35611cca565b5b600182019050919050565b50565b6000611d51600083611c48565b9150611d5c82611d41565b600082019050919050565b6000611d7282611d44565b9150819050919050565b60008190508160005260206000209050919050565b60008154611d9e81611c17565b611da88186611c48565b94506001821660008114611dc35760018114611dd857611e0b565b60ff1983168652811515820286019350611e0b565b611de185611d7c565b60005b83811015611e0357815481890152600182019150602081019050611de4565b838801955050505b50505092915050565b6000611e208284611d91565b915081905092915050565b60006020601f8301049050919050565b600082821b905092915050565b600060088302611e787fffffffffffffffffffffffffffffffffffffffffffffffffffffffffffffffff82611e3b565b611e828683611e3b565b95508019841693508086168417925050509392505050565b6000819050919050565b6000611ebf611eba611eb5846114a2565b611e9a565b6114a2565b9050919050565b6000819050919050565b611ed983611ea4565b611eed611ee582611ec6565b848454611e48565b825550505050565b600090565b611f02611ef5565b611f0d818484611ed0565b505050565b5b81811015611f3157611f26600082611efa565b600181019050611f13565b5050565b601f821115611f7657611f4781611d7c565b611f5084611e2b565b81016020851015611f5f578190505b611f73611f6b85611e2b565b830182611f12565b50505b505050565b600082821c905092915050565b6000611f9960001984600802611f7b565b1980831691505092915050565b6000611fb28383611f88565b9150826002028217905092915050565b611fcb82611534565b67ffffffffffffffff811115611fe457611fe3611377565b5b611fee8254611c17565b611ff9828285611f35565b600060209050601f83116001811461202c576000841561201a578287015190505b6120248582611fa6565b86555061208c565b601f19841661203a86611d7c565b60005b828110156120625784890151825560018201915060208501945060208101905061203d565b8683101561207f578489015161207b601f891682611f88565b8355505b6001600288020188555050505b50505050505056fea264697066735822122028dc3fd5d223487b8287fc078e806a6fd94b32d59810dbbf6656ad19beea4d8064736f6c63430008110033",
  "devdoc": {
    "kind": "dev",
    "methods": {},
    "version": 1
  },
  "userdoc": {
    "kind": "user",
    "methods": {},
    "version": 1
  },
  "storageLayout": {
    "storage": [
      {
        "astId": 25,
        "contract": "contracts/Certificate.sol:Certificate",
        "label": "users",
        "offset": 0,
        "slot": "0",
        "type": "t_mapping(t_string_memory_ptr,t_struct(User)20_storage)"
      },
      {
        "astId": 31,
        "contract": "contracts/Certificate.sol:Certificate",
        "label": "certs",
        "offset": 0,
        "slot": "1",
        "type": "t_mapping(t_string_memory_ptr,t_array(t_struct(Cert)8_storage)dyn_storage)"
      },
      {
        "astId": 37,
        "contract": "contracts/Certificate.sol:Certificate",
        "label": "cert_ins",
        "offset": 0,
        "slot": "2",
        "type": "t_mapping(t_string_memory_ptr,t_array(t_struct(Cert_Ins)15_storage)dyn_storage)"
      }
    ],
    "types": {
      "t_array(t_struct(Cert)8_storage)dyn_storage": {
        "base": "t_struct(Cert)8_storage",
        "encoding": "dynamic_array",
        "label": "struct Certificate.Cert[]",
        "numberOfBytes": "32"
      },
      "t_array(t_struct(Cert_Ins)15_storage)dyn_storage": {
        "base": "t_struct(Cert_Ins)15_storage",
        "encoding": "dynamic_array",
        "label": "struct Certificate.Cert_Ins[]",
        "numberOfBytes": "32"
      },
      "t_mapping(t_string_memory_ptr,t_array(t_struct(Cert)8_storage)dyn_storage)": {
        "encoding": "mapping",
        "key": "t_string_memory_ptr",
        "label": "mapping(string => struct Certificate.Cert[])",
        "numberOfBytes": "32",
        "value": "t_array(t_struct(Cert)8_storage)dyn_storage"
      },
      "t_mapping(t_string_memory_ptr,t_array(t_struct(Cert_Ins)15_storage)dyn_storage)": {
        "encoding": "mapping",
        "key": "t_string_memory_ptr",
        "label": "mapping(string => struct Certificate.Cert_Ins[])",
        "numberOfBytes": "32",
        "value": "t_array(t_struct(Cert_Ins)15_storage)dyn_storage"
      },
      "t_mapping(t_string_memory_ptr,t_struct(User)20_storage)": {
        "encoding": "mapping",
        "key": "t_string_memory_ptr",
        "label": "mapping(string => struct Certificate.User)",
        "numberOfBytes": "32",
        "value": "t_struct(User)20_storage"
      },
      "t_string_memory_ptr": {
        "encoding": "bytes",
        "label": "string",
        "numberOfBytes": "32"
      },
      "t_string_storage": {
        "encoding": "bytes",
        "label": "string",
        "numberOfBytes": "32"
      },
      "t_struct(Cert)8_storage": {
        "encoding": "inplace",
        "label": "struct Certificate.Cert",
        "members": [
          {
            "astId": 3,
            "contract": "contracts/Certificate.sol:Certificate",
            "label": "cert_name",
            "offset": 0,
            "slot": "0",
            "type": "t_string_storage"
          },
          {
            "astId": 5,
            "contract": "contracts/Certificate.sol:Certificate",
            "label": "cert_type",
            "offset": 0,
            "slot": "1",
            "type": "t_string_storage"
          },
          {
            "astId": 7,
            "contract": "contracts/Certificate.sol:Certificate",
            "label": "org_address",
            "offset": 0,
            "slot": "2",
            "type": "t_string_storage"
          }
        ],
        "numberOfBytes": "96"
      },
      "t_struct(Cert_Ins)15_storage": {
        "encoding": "inplace",
        "label": "struct Certificate.Cert_Ins",
        "members": [
          {
            "astId": 10,
            "contract": "contracts/Certificate.sol:Certificate",
            "label": "cert_name",
            "offset": 0,
            "slot": "0",
            "type": "t_string_storage"
          },
          {
            "astId": 12,
            "contract": "contracts/Certificate.sol:Certificate",
            "label": "cert_type",
            "offset": 0,
            "slot": "1",
            "type": "t_string_storage"
          },
          {
            "astId": 14,
            "contract": "contracts/Certificate.sol:Certificate",
            "label": "stu_address",
            "offset": 0,
            "slot": "2",
            "type": "t_string_storage"
          }
        ],
        "numberOfBytes": "96"
      },
      "t_struct(User)20_storage": {
        "encoding": "inplace",
        "label": "struct Certificate.User",
        "members": [
          {
            "astId": 17,
            "contract": "contracts/Certificate.sol:Certificate",
            "label": "name",
            "offset": 0,
            "slot": "0",
            "type": "t_string_storage"
          },
          {
            "astId": 19,
            "contract": "contracts/Certificate.sol:Certificate",
            "label": "role",
            "offset": 0,
            "slot": "1",
            "type": "t_string_storage"
          }
        ],
        "numberOfBytes": "64"
      }
    }
  }
}